{
  "contractName": "Register",
  "abi": [
    {
      "inputs": [
        {
          "internalType": "bytes32[]",
          "name": "studentHashes",
          "type": "bytes32[]"
        }
      ],
      "stateMutability": "nonpayable",
      "type": "constructor"
    },
    {
      "anonymous": false,
      "inputs": [],
      "name": "verifiedEvent",
      "type": "event"
    },
    {
      "inputs": [
        {
          "internalType": "address",
          "name": "",
          "type": "address"
        }
      ],
      "name": "EligbleVotersAddresses",
      "outputs": [
        {
          "internalType": "bool",
          "name": "",
          "type": "bool"
        }
      ],
      "stateMutability": "view",
      "type": "function"
    },
    {
      "inputs": [
        {
          "internalType": "bytes32",
          "name": "",
          "type": "bytes32"
        }
      ],
      "name": "RegisteredStudentHashes",
      "outputs": [
        {
          "internalType": "bool",
          "name": "",
          "type": "bool"
        }
      ],
      "stateMutability": "view",
      "type": "function"
    },
    {
      "inputs": [
        {
          "internalType": "bytes32",
          "name": "",
          "type": "bytes32"
        }
      ],
      "name": "VerifiedStudentHashes",
      "outputs": [
        {
          "internalType": "bool",
          "name": "",
          "type": "bool"
        }
      ],
      "stateMutability": "view",
      "type": "function"
    },
    {
      "inputs": [
        {
          "internalType": "bytes32",
          "name": "studentHash",
          "type": "bytes32"
        }
      ],
      "name": "addStudentHash",
      "outputs": [],
      "stateMutability": "nonpayable",
      "type": "function"
    },
    {
      "inputs": [
        {
          "internalType": "address",
          "name": "_address",
          "type": "address"
        }
      ],
      "name": "isEligble",
      "outputs": [
        {
          "internalType": "bool",
          "name": "",
          "type": "bool"
        }
      ],
      "stateMutability": "view",
      "type": "function"
    },
    {
      "inputs": [
        {
          "internalType": "string",
          "name": "passcode",
          "type": "string"
        }
      ],
      "name": "verify",
      "outputs": [],
      "stateMutability": "nonpayable",
      "type": "function"
    }
  ],
  "bytecode": "0x60806040523480156200001157600080fd5b5060405162000bc238038062000bc283398181016040528101906200003791906200017b565b60005b81518163ffffffff161015620000ae576001806000848463ffffffff16815181106200006b576200006a620002d5565b5b6020026020010151815260200190815260200160002060006101000a81548160ff0219169083151502179055508080620000a59062000274565b9150506200003a565b505062000372565b6000620000cd620000c784620001f5565b620001cc565b90508083825260208201905082856020860282011115620000f357620000f262000338565b5b60005b858110156200012757816200010c888262000164565b845260208401935060208301925050600181019050620000f6565b5050509392505050565b600082601f83011262000149576200014862000333565b5b81516200015b848260208601620000b6565b91505092915050565b600081519050620001758162000358565b92915050565b60006020828403121562000194576200019362000342565b5b600082015167ffffffffffffffff811115620001b557620001b46200033d565b5b620001c38482850162000131565b91505092915050565b6000620001d8620001eb565b9050620001e682826200023e565b919050565b6000604051905090565b600067ffffffffffffffff82111562000213576200021262000304565b5b602082029050602081019050919050565b6000819050919050565b600063ffffffff82169050919050565b620002498262000347565b810181811067ffffffffffffffff821117156200026b576200026a62000304565b5b80604052505050565b600062000281826200022e565b915063ffffffff8214156200029b576200029a620002a6565b5b600182019050919050565b7f4e487b7100000000000000000000000000000000000000000000000000000000600052601160045260246000fd5b7f4e487b7100000000000000000000000000000000000000000000000000000000600052603260045260246000fd5b7f4e487b7100000000000000000000000000000000000000000000000000000000600052604160045260246000fd5b600080fd5b600080fd5b600080fd5b600080fd5b6000601f19601f8301169050919050565b620003638162000224565b81146200036f57600080fd5b50565b61084080620003826000396000f3fe608060405234801561001057600080fd5b50600436106100625760003560e01c80630f26473b146100675780632b5ee1951461009757806357b3efe1146100c75780635838ed31146100e3578063b130c64414610113578063bb9c6c3e14610143575b600080fd5b610081600480360381019061007c91906104ee565b61015f565b60405161008e9190610630565b60405180910390f35b6100b160048036038101906100ac91906104c1565b61017f565b6040516100be9190610630565b60405180910390f35b6100e160048036038101906100dc91906104ee565b6101ec565b005b6100fd60048036038101906100f891906104ee565b61024c565b60405161010a9190610630565b60405180910390f35b61012d600480360381019061012891906104c1565b61026c565b60405161013a9190610630565b60405180910390f35b61015d60048036038101906101589190610548565b61028c565b005b60026020528060005260406000206000915054906101000a900460ff1681565b6000600115156000808473ffffffffffffffffffffffffffffffffffffffff1673ffffffffffffffffffffffffffffffffffffffff16815260200190815260200160002060009054906101000a900460ff16151514156101e257600190506101e7565b600090505b919050565b600115156001600083815260200190815260200160002060009054906101000a900460ff161515141561021e57600080fd5b600180600083815260200190815260200160002060006101000a81548160ff02191690831515021790555050565b60016020528060005260406000206000915054906101000a900460ff1681565b60006020528060005260406000206000915054906101000a900460ff1681565b60006002826040516020016102a19190610619565b6040516020818303038152906040526040516102bd9190610602565b602060405180830381855afa1580156102da573d6000803e3d6000fd5b5050506040513d601f19601f820116820180604052508101906102fd919061051b565b9050600115156002600083815260200190815260200160002060009054906101000a900460ff161515141561033157600080fd5b600115156001600083815260200190815260200160002060009054906101000a900460ff16151514156103e25760016002600083815260200190815260200160002060006101000a81548160ff02191690831515021790555060016000803373ffffffffffffffffffffffffffffffffffffffff1673ffffffffffffffffffffffffffffffffffffffff16815260200190815260200160002060006101000a81548160ff0219169083151502179055505b7f4026e8da9e1aca89c3fe6b6aafc73fde7783c243f7288f6ccd936ee9781394ef60405160405180910390a15050565b600061042561042084610670565b61064b565b905082815260208101848484011115610441576104406107bc565b5b61044c848285610715565b509392505050565b600081359050610463816107dc565b92915050565b600081359050610478816107f3565b92915050565b60008151905061048d816107f3565b92915050565b600082601f8301126104a8576104a76107b7565b5b81356104b8848260208601610412565b91505092915050565b6000602082840312156104d7576104d66107c6565b5b60006104e584828501610454565b91505092915050565b600060208284031215610504576105036107c6565b5b600061051284828501610469565b91505092915050565b600060208284031215610531576105306107c6565b5b600061053f8482850161047e565b91505092915050565b60006020828403121561055e5761055d6107c6565b5b600082013567ffffffffffffffff81111561057c5761057b6107c1565b5b61058884828501610493565b91505092915050565b61059a816106df565b82525050565b60006105ab826106a1565b6105b581856106b7565b93506105c5818560208601610724565b80840191505092915050565b60006105dc826106ac565b6105e681856106c2565b93506105f6818560208601610724565b80840191505092915050565b600061060e82846105a0565b915081905092915050565b600061062582846105d1565b915081905092915050565b60006020820190506106456000830184610591565b92915050565b6000610655610666565b90506106618282610757565b919050565b6000604051905090565b600067ffffffffffffffff82111561068b5761068a610788565b5b610694826107cb565b9050602081019050919050565b600081519050919050565b600081519050919050565b600081905092915050565b600081905092915050565b60006106d8826106f5565b9050919050565b60008115159050919050565b6000819050919050565b600073ffffffffffffffffffffffffffffffffffffffff82169050919050565b82818337600083830152505050565b60005b83811015610742578082015181840152602081019050610727565b83811115610751576000848401525b50505050565b610760826107cb565b810181811067ffffffffffffffff8211171561077f5761077e610788565b5b80604052505050565b7f4e487b7100000000000000000000000000000000000000000000000000000000600052604160045260246000fd5b600080fd5b600080fd5b600080fd5b600080fd5b6000601f19601f8301169050919050565b6107e5816106cd565b81146107f057600080fd5b50565b6107fc816106eb565b811461080757600080fd5b5056fea26469706673582212204f92f47e659b0424d7f9367380c54c2387acdd1c53751d5ecd41b9660b27c41864736f6c63430008070033",
  "immutableReferences": {},
  "source": "pragma solidity 0.8.7;\r\n\r\ncontract Register {\r\n\r\n    mapping(address => bool) public EligbleVotersAddresses;\r\n    mapping(bytes32 => bool) public RegisteredStudentHashes;\r\n    mapping(bytes32 => bool) public VerifiedStudentHashes; \r\n\r\n    event verifiedEvent();\r\n\r\n\r\n    constructor(bytes32[] memory studentHashes) {\r\n        for (uint32 i = 0; i < studentHashes.length; i++){\r\n            RegisteredStudentHashes[studentHashes[i]] = true;\r\n        }\r\n    }\r\n    \r\n    function addStudentHash(bytes32 studentHash) public {\r\n        if (RegisteredStudentHashes[studentHash] == true)\r\n            revert();        \r\n        else\r\n            RegisteredStudentHashes[studentHash] = true;\r\n    }\r\n\r\n    function isEligble(address _address) public view returns(bool) {\r\n        if (EligbleVotersAddresses[_address] == true)\r\n            return true;\r\n        else return false;\r\n    }\r\n    function verify(string memory passcode) public {\r\n        bytes32 hash = sha256(abi.encodePacked(passcode));\r\n        if (VerifiedStudentHashes[hash] == true){\r\n            revert();\r\n        }\r\n\r\n        if (RegisteredStudentHashes[hash] == true /*&& VerifiedStudentHashes[hash] == false*/) {\r\n            VerifiedStudentHashes[hash] = true;   // \r\n            EligbleVotersAddresses[msg.sender] = true;\r\n        }\r\n\r\n        // trigger verified event\r\n        emit verifiedEvent();\r\n\r\n    }\r\n\r\n}",
  "sourcePath": "/home/cromi/Documents/Code/Solidity/election-presentation/contracts/Register.sol",
  "compiler": {
    "name": "solc",
    "version": "0.8.7+commit.e28d00a7.Emscripten.clang"
  },
  "schemaVersion": "3.4.11",
  "updatedAt": "2023-02-09T09:28:41.674Z",
  "devdoc": {
    "kind": "dev",
    "methods": {},
    "version": 1
  },
  "userdoc": {
    "kind": "user",
    "methods": {},
    "version": 1
  }
}